:020000040800F2
:10000000900400209D010008AB0F0008DD0D0008E2
:10001000A90F0008A90200083B1300080000000017
:10002000000000000000000000000000AF0F00080A
:10003000AB02000800000000AD0F0008B10F00087F
:10004000B7010008B7010008B7010008B7010008B0
:10005000B7010008B7010008B7010008B7010008A0
:10006000B7010008B7010008B7010008B701000890
:10007000B7010008B7010008B7010008B701000880
:10008000B7010008B7010008B7010008B701000870
:10009000B7010008B7010008B7010008B701000860
:1000A000B7010008B7010008B7010008B701000850
:1000B000B7010008B7010008B7010008B701000840
:1000C000B7010008B7010008B7010008B701000830
:1000D000B7010008B7010008B7010008B701000820
:1000E000B7010008B7010008B7010008B701000810
:1000F000B7010008B7010008B7010008B701000800
:10010000B7010008B7010008B7010008B7010008EF
:10011000B7010008B7010008B7010008B7010008DF
:10012000B7010008B7010008B7010008B7010008CF
:10013000B7010008B7010008B7010008B7010008BF
:10014000B7010008B7010008B7010008B7010008AF
:10015000B7010008B7010008B7010008B70100089F
:10016000B7010008B7010008B7010008B70100088F
:10017000B7010008B7010008B7010008000000003F
:10018000B7010008B7010008DFF80CD000F07AF8DA
:1001900000480047CD13000890040020064880471F
:1001A00006480047FEE7FEE7FEE7FEE7FEE7FEE75C
:1001B000FEE7FEE7FEE7FEE74D10000889010008B4
:1001C0002DE9F05F0546002092469B46884606468C
:1001D000814640241BE0284641464746224600F01F
:1001E00041F853465A46C01A914110D31146184659
:1001F000224600F028F82D1A67EB01084F462246E8
:100200000120002100F01FF817EB00094E41201ECD
:10021000A4F10104DFDC484631462A464346BDE8E6
:10022000F09FD2B201E000F8012B491EFBD27047CB
:100230000022F6E710B513460A4604461946FFF7B2
:10024000F0FF204610BD202A04DB203A00FA02F11C
:10025000002070479140C2F1200320FA03F31943B4
:1002600090407047202A04DB203A21FA02F0002156
:10027000704721FA02F3D040C2F1200291400843B6
:1002800019467047064C074D06E0E06840F0010350
:1002900094E8070098471034AC42F6D3FFF778FF94
:1002A000C4150008E4150008FEE7704772B6FEE7C3
:1002B0002DE9F84F00224FF0010803254FF00F0EF3
:1002C0000B6808FA02F42340A3426ED14E68012E57
:1002D00005D0022E03D0112E01D0122E12D1866825
:1002E0004FEA420C05FA0CF7BE43CF6807FA0CF749
:1002F000374387604668A6430C79C4F300149440E2
:1003000034434460C668570005FA07FC8C6826EA47
:100310000C06BC403443C4604C68022C01D0122C43
:1003200013D1D40800EB8404A346D4F820905407DA
:100330004FEAD46A0EFA0AF629EA06090E6906FAA5
:100340000AF646EA0906CBF8206006680C7926EA28
:100350000C0604F00304BC40344304604C68E40021
:1003600065D5364C266846F480462660246822F01F
:10037000030604F480440094314C3444A446D4F879
:1003800008489607370F0EFA07F6B4432D4EB042D1
:1003900001D1002624E02C4EB04201D101261FE0FD
:1003A0002A4EB04202D102261AE040E0284EB04266
:1003B00001D1032614E0274EB04201D104260FE0FC
:1003C000254EB04201D105260AE0244EB04201D1AB
:1003D000062605E0224EB04201D1072600E008269D
:1003E000BE402643CCF808681E4E34684F689C43D4
:1003F000FF0300D51C4334601A4C241D26684F6847
:100400009E43BF0300D51E432660164E083634684F
:100410004F689C43FF0200D51C433460114E0C36DC
:1004200034684F689C43BF0200D51C433460521CA3
:10043000102AFFF445AFBDE8F88F000044380240B1
:100440000030014000000240000402400008024069
:10045000000C02400010024000140240001802404C
:10046000001C0240003C01400069084000D001200F
:1004700070470AB1816170470904FBE70148806851
:100480007047000000000020024881680278114493
:1004900081607047000000200B4810B5016841F4EE
:1004A00000710160016841F480610160016841F4FC
:1004B00080710160032000F061F8002000F006F870
:1004C00000F024F8002010BD003C024070B50D4D36
:1004D00004464FF47A712878B1FBF0F00A490968B4
:1004E000B1FBF0F000F0D6FA48B9102C07D2002288
:1004F0002146501E00F022F800206C6070BD0120E3
:1005000070BD0000000000200C0000200A4808B563
:10051000016841F480410160006800F4804000906F
:100520000548001F016841F080510160006800F03B
:100530008050009008BD000044380240F0B40E4BDB
:100540001B680C46C3F30223C3F10705042D00D931
:100550000425191D072901D2002300E0DB1E012616
:1005600006FA05F1491E214099409E40761E16402C
:100570003143F0BC00F0E2BE0CED00E0064900F0B3
:10058000070208684FF6FF03184040EA0220034ABA
:1005900010430860704700000CED00E00000FA0511
:1005A0002DE9F0470E46050065D0DFF81481D8F834
:1005B0000000F7B200F00F00B04207D288F80070D8
:1005C000D8F8000000F00F00B04254D128683D4C2C
:1005D000810712D5400703D5206840F4E050206021
:1005E0002878000703D5206840F460402060206828
:1005F000A96820F0F000084320602878C0072DD0BB
:10060000304968680839012812D0022813D003281D
:1006100011D00968890700292DDA216821F003012A
:1006200001432160FFF72AFF814641F2883A0EE03C
:1006300009688903EFE709688901ECE7FFF71EFF06
:10064000A0EB0901514502D90320BDE8F0872068DD
:10065000696800F00C00B0EB810FEFD1D8F8001002
:10066000404601F00F01B14207D90770006800F061
:100670000F00B04201D00120E7E72878400705D5F8
:100680002068E96820F4E0500843206028780007DB
:1006900006D52068296920F4604040EAC100206046
:1006A00000F018F82168084AC1F30311515CC840F2
:1006B0000649086006480068FFF708FF0020C4E705
:1006C000003C024008380240B41500080C0000202D
:1006D00004000020154810B5006810F00C02144802
:1006E00013D01449042A0FD0082A0ED10F4C241F0E
:1006F0002268236802F03F025B0207D52068C0F33E
:100700008810A0FB010106E0084610BD2168C1F376
:100710008811A1FB00010023FFF752FD2168C1F3FE
:100720000141491C4900B0FBF1F010BD08380240FE
:100730000024F40040787D012DE9F84F04006ED0CC
:100740002078DFF83C93C007A9F104054AD009F1ED
:1007500004000168C1F38101012908D00068C0F3D9
:10076000810002280AD1D9F80000400206D5286885
:10077000800337D560680028E1D033E06068B0F5C9
:10078000803F10D0B0F5A02F286810D020F4803022
:100790002860286820F4802028606068A8B1FFF7EE
:1007A0006DFE06460DE0286840F48030F4E740F422
:1007B00080202860F7E700BFFFF760FE801B6428F9
:1007C00073D828688003F7D50CE0FFF757FE06467C
:1007D00005E000BFFFF752FE801B6428F0D82868B0
:1007E0008003F7D42078DFF89C8280074FF0000A5E
:1007F0003ED5A348001D016811F00C0F08D0006819
:10080000C0F3810002280BD1D9F80000400207D4C0
:100810002868800716D5E068012800D112E02BE196
:10082000E068B8B10120C8F80000FFF727FE0646CF
:1008300005E000BFFFF722FE801B0228C0D8286811
:100840008007F7D52868216920F0F80040EAC10048
:1008500028600DE0C8F800A0FFF710FE064604E08F
:10086000FFF70CFE801B02281FD828688007F7D4EA
:100870002078000722D5824E83486169703671B1B5
:1008800001210160FFF7FAFD074604E0FFF7F6FDDE
:10089000C01B022809D830688007F7D50EE0C0F8E1
:1008A00000A0FFF7EBFD074605E082E0FFF7E6FD5D
:1008B000C01B02287DD830688007F7D42078400715
:1008C00068D5DFF8BCB100270BF13C0BDBF800006A
:1008D000C0000BD4DBF8001041F08051CBF80010C1
:1008E000DBF80000012700F080500090674E306870
:1008F000C00510D4306840F480703060FFF7BEFD52
:10090000009005E0FFF7BAFD0099401A022850D880
:100910003068C005F6D55A4EA0686C3601280FD055
:100920000528306810D020F001003060306820F0D9
:1009300004003060A068B8B1FFF7A0FD00900FE0A0
:10094000306840F00100F4E740F004003060F7E761
:10095000FFF794FD0099411A41F28830814266D830
:1009600030688007F4D50EE0FFF788FD009007E0BF
:10097000FFF784FD0099411A41F28830814256D830
:1009800030688007F4D42FB1DBF8001021F08051DB
:10099000CBF80010A069C8B33949091D0968C1F333
:1009A000810102294AD00228504607D0C8F86000C9
:1009B00000E03CE0FFF762FD04463BE04746C8F834
:1009C0006000FFF75BFD064605E000BFFFF756FD40
:1009D000801B02282BD828688001F7D4D4E90701AE
:1009E0000843A16A2A4A490802EB0141626A41EAC6
:1009F0008211084394F82C1040EA0161C9F80010F4
:100A000001203866FFF73AFD044606E036E000BFF5
:100A1000FFF734FD001B022809D828688001F7D5AC
:100A20002CE000BFFFF72AFD001B022802D903209B
:100A3000BDE8F88F28688001F4D41FE00128F7D0C2
:100A4000D9F80000E26900F48001914214D1226AD1
:100A500000F03F0191420FD147F6C071626A014038
:100A6000914209D1A26A00F44031914204D1E16A75
:100A700000F07060884201D00120D9E70020D7E75C
:100A80000438024000004742800E47420070004098
:100A90000000FFFF10B5401EB0F1807F01D30120A0
:100AA00010BD4FF0E02460610F21601700F046FC9C
:100AB0000020A06107202061002010BD10B50400B7
:100AC00003D094F83D0010B107E0012010BD0020D4
:100AD00084F83C00204600F00DF8022084F83D0028
:100AE000211D206800F0C0FA012084F83D0000209C
:100AF00010BD000008B50C4A01680C48914207D1AE
:100B0000016841F480310160006800F4803009E040
:100B1000074A914207D1016841F4802101600068D1
:100B200000F48020009008BD00400140443802409D
:100B30000048014070B5044690F83C00012817D0E9
:100B4000012584F83C50022084F83D00206882682A
:100B500022F0770222F47F4282600868502830D069
:100B60000DDC20284DD005DC98B310283BD148E09F
:100B7000022070BD302844D0402834D139E06028AC
:100B800028D0702806D0B0F5805F2CD0B0F5005F7B
:100B900029D10AE0CB68D1E90121206800F0D5FA1B
:100BA0002068816841F0770109E0CB68D1E9012133
:100BB000206800F0CAFA2068816841F480418160B1
:100BC00011E0CA684968206800F094FB5021206851
:100BD00007E016E0CA684968206800F09CFB6021C5
:100BE000206800F0BCFA84F83D50002084F83C00F6
:100BF00070BDCA684968206800F07CFB402120680D
:100C0000EFE7226801461046EBE7000030B587B0F9
:100C1000044614216846FFF70BFB2468174D00219A
:100C2000174802220323AC4210D1046844F0100498
:100C30000460006800F01000059020200090CDE9CD
:100C40000121CDE9031369460E4812E00E4DAC4276
:100C500011D1046844F002040460006800F002004E
:100C6000059068150090CDE90121CDE9031369468F
:100C70000648FFF71DFB07B030BD000000400140F3
:100C80003038024000100240004801400004024099
:100C900070B5044690F83C000D4601280DD00126A1
:100CA00084F83C60022084F83D0042B1042A18D048
:100CB000082A2AD00C2A4DD139E0022070BD2068C4
:100CC00000F056FA2068816941F0080181612068CE
:100CD000816921F004018161206881692A691143D9
:100CE00011E0206800F074FA2068816941F4006125
:100CF00081612068816921F4806181612068816956
:100D00002A6941EA0221816124E0206800F096FA14
:100D10002068C16941F00801C1612068C16921F002
:100D20000401C1612068C1692A69114311E020688A
:100D300000F0B8FA2068C16941F40061C16120681F
:100D4000C16921F48061C1612068C1692A6941EAF1
:100D50000221C16184F83D60002084F83C0070BD30
:100D600010B5040003D094F83D0010B107E0012055
:100D700010BD002084F83C00204600F00CF8022052
:100D800084F83D00211D206800F06EF9012084F8F0
:100D90003D00002010BD704710B5044600680122D8
:100DA00000F0C6F90B492068884202D00A498842FF
:100DB00003D1416C41F4004141642068816801F035
:100DC0000701062903D0016841F0010101600020FC
:100DD00010BD00000000014000040140FEE70000DB
:100DE0002DE9F04186B014216846FFF721FA2F481B
:100DF0000024016841F010010160016801F0100158
:100E00000591016841F080010160016801F08001F5
:100E10000591016841F002010160016801F00201E1
:100E20000591016841F004010160016801F00401CD
:100E30000591016841F00101016000681C4F00F05C
:100E400001000590002240213846FFF712FBDFF831
:100E50006480BE15002231464046FFF70AFB402061
:100E600000900125CDE90154694638460394FFF707
:100E70001FFA4FF44040CDE9000469464046029411
:100E8000FFF716FA4FF44070CDE9000469460A48AE
:100E90000294FFF70DFA0096CDE9015469464046E9
:100EA0000394FFF705FA06B0BDE8F0813038024040
:100EB00000100240000402400008024010B588B053
:100EC0001C216846FFF7B4F9154814490024016055
:100ED000A721C0E9011444F61F61C0E90314802171
:100EE0008161FFF7EBFD08B1FFF7E0F90C48FFF770
:100EF00037FF08B1FFF7DAF96020CDE9000402946A
:100F00000022694606480494FFF7C2FE08B1FFF7C5
:100F1000CDF90348FFF77AFE08B010BD0048014044
:100F20005000002010B58CB0002407940894099458
:100F30001C2168460A94FFF77BF91A48184901609A
:100F4000A721C0E9011444F61F61C0E90314802100
:100F50008161FFF7B3FD08B1FFF7A8F94FF48050A6
:100F6000079007A90F48FFF7E5FD08B1FFF79EF9C5
:100F70000C48FFF7F5FE08B1FFF798F96020CDE9BE
:100F8000000402940022694606480494FFF780FE9C
:100F900008B1FFF78BF90348FFF738FE0CB010BD1E
:100FA0000040014010000020FEE7FEE77047704758
:100FB000FFF76ABA30B593B030216846FFF738F9C9
:100FC00014210CA8FFF734F91E480025016841F0F0
:100FD00080510160006800F0805011901A4801684B
:100FE00041F4804101600068022400F480401190C7
:100FF00001200090000401908001CDE906401920F5
:1010000008904FF4A870CDE9090404200B906846BD
:10101000FFF792FB08B172B6FEE70CA90F2081E83A
:1010200031004FF4A0500F904FF4805010900521E4
:101030000CA8FFF7B5FA002801D072B6FEE713B08E
:1010400030BD000040380240007000400548016893
:1010500041F47001016003494FF00060803908607D
:101060007047000088ED00E0F0B50268254C264D81
:10107000264E274F274B4FF0804CA04209D06045A9
:1010800007D0A84205D0B04203D0B84201D0984260
:1010900004D122F0700E4A6842EA0E02A0421BD030
:1010A000604519D0A84217D0B04215D0B84213D02D
:1010B000984211D0184DA8420ED0184DA8420BD01E
:1010C000174DA84208D0174DA84205D0164DA8428A
:1010D00002D0164DA84203D122F44075CA682A43B3
:1010E0004D6922F080022A4302608A68C2620A685F
:1010F0008262A04201D0984201D1096901630121B5
:101100004161F0BD000001400004004000080040C3
:10111000000C004000040140004001400044014038
:101120000048014000180040001C00400020004022
:1011300010B501F01F030121046A99408C43046239
:10114000016A9A401143016210BD10B5846842EAF9
:10115000032224F47F440A432243826010BD826844
:1011600022F070020A4342F00701816070470000DC
:10117000F0B5026A22F001020262036A42688469E1
:10118000124E24F073050C682C4323F002058B6883
:101190002B430D4DA84201D0B04205D123F00807E2
:1011A000CB683B4323F00403A84201D0B04205D1F1
:1011B0004D6922F4407215438A692A434260846172
:1011C000496841630362F0BD000001400004014032
:1011D000F0B5026A22F010020262026A4368846972
:1011E0000D6824F4E64444EA05248D6822F02002C8
:1011F00042EA05120F4D104EA84201D0B04206D16E
:10120000CF6822F0800242EA071222F04002A84290
:1012100001D0B04207D14D6923F4406343EA85030E
:101220008D6943EA85034360846149688163026292
:10123000F0BD00000000014000040140F0B5026A6A
:1012400022F480720262026A4368C46922F4007266
:1012500024F073050C68124E2C438D6842EA052277
:101260000E4DA84201D0B04206D1CF6822F40062F0
:1012700042EA072222F48062A84201D0B04207D19C
:101280004D6923F4405343EA05138D6943EA05137E
:101290004360C4614968C1630262F0BD000001405F
:1012A0000004014030B5026A22F480520262046AEE
:1012B0004268C3690D6823F4E64343EA05238D6859
:1012C00024F4005444EA0534084DA84202D0084DE5
:1012D000A84204D14D6922F4804242EA851242605C
:1012E000C36149680164046230BD00000000014030
:1012F0000004014010B5036A046A24F0010404628A
:10130000846924F0F00444EA021423F00A020A4338
:101310008461026210BD10B5036A23F010030362FA
:101320008369046A23F4704343EA023224F0A00381
:1013300043EA01118261016210BDFEE70907090E4F
:10134000002804DB00F1E02080F80014704700F072
:101350000F0000F1E02080F8141D704702E008C87B
:10136000121F08C1002AFAD170477047002001E01F
:1013700001C1121F002AFBD17047000010B50021E7
:101380000E48FFF709FD0D49002009684863024631
:101390004FF480710A48FFF76CF800210948FFF705
:1013A000FBFC084942F21070096848630022BDE85E
:1013B000104040210448FFF75CB8000050000020B6
:1013C000000402401000002000100240FFF764F803
:1013D000FFF7F0FDFFF704FDFFF7A4FDFFF76EFD3B
:1013E0004FF40045364C374EAF114FF480784FF430
:1013F000804929463046FFF737F8012811D1394690
:101400002046FFF731F801280BD141462046FFF76F
:101410002BF8012805D149463046FFF725F8012869
:101420004AD029463046FFF71FF880B93946204692
:10143000FFF71AF858B941462046FFF715F801287A
:1014400005D149463046FFF70FF8012806D0294656
:101450003046FFF709F8012803D012E000F034F815
:10146000C7E739462046FEF7FFFF012809D141466C
:101470002046FEF7F9FF20B949463046FEF7F4FF53
:1014800028B129463046FEF7EFFF18B111E0FFF70B
:1014900075FFAEE739462046FEF7E6FF48B94146FC
:1014A0002046FEF7E1FF20B949463046FEF7DCFF53
:1014B00010B100F059F89CE700F02EF899E7000011
:1014C000000802400004024010B500210E48FFF75A
:1014D00063FC0D4942F210700968486300224FF422
:1014E00080710A48FEF7C5FF00210948FFF754FC48
:1014F00007490020096848630246BDE810404021C2
:101500000448FEF7B6BF000050000020000402406F
:10151000100000200010024010B500210E48FFF717
:101520003BFC0D4942F210700968486300224FF4F9
:1015300080710A48FEF79DFF00210948FFF72CFC47
:1015400007490020096848630122BDE81040402196
:101550000448FEF78EBF0000500000200004024047
:10156000100000200010024010B500210D48FFF7C8
:1015700013FC0C4800240068446322464FF4807139
:101580000948FEF776FF00210848FFF705FC0748E9
:10159000006844630022BDE8104040210448FEF783
:1015A00068BF00005000002000040240100000202E
:1015B00000100240000000000000000001020304CF
:1015C00006070809E41500080000002010000000CC
:1015D0005C130008F41500081000002080040000CF
:1015E0006C13000801000000100000000000000063
:0415F0000024F400DF
:040000050800018965
:00000001FF
