:020000040800F2
:100000004007002029020008E92200080721000813
:10001000E52200081F040008532700080000000024
:10002000000000000000000000000000592300084C
:10003000C504000800000000572300085B230008E7
:10004000430200084302000843020008430200087C
:100050004302000843020008C704000843020008E6
:10006000430200084302000843020008430200085C
:10007000430200084302000843020008430200084C
:10008000430200084302000843020008430200083C
:100090002504000843020008430200084302000848
:1000A000430200082D240008430200084302000810
:1000B000430200084302000843020008430200080C
:1000C00043020008430200084302000843020008FC
:1000D00043020008430200084302000843020008EC
:1000E00043020008430200084302000843020008DC
:1000F00043020008430200084302000843020008CC
:1001000043020008430200084302000843020008BB
:1001100043020008430200084302000843020008AB
:10012000430200084302000843020008430200089B
:10013000430200084302000843020008430200088B
:10014000430200084302000843020008430200087B
:10015000430200084302000843020008430200086B
:10016000430200084302000843020008430200085B
:100170004302000843020008430200080000000098
:10018000430200084302000800F002F800F03CF8C7
:100190000AA090E8000C82448344AAF10107DA45E2
:1001A00001D100F031F8AFF2090EBAE80F0013F0F8
:1001B000010F18BFFB1A43F0010318472026000067
:1001C00040260000103A24BF78C878C1FAD85207F8
:1001D00024BF30C830C144BF04680C6070470000C1
:1001E0000023002400250026103A28BF78C1FBD840
:1001F000520728BF30C148BF0B6070471FB502F0DF
:10020000DBFA1FBD10B510BD00F0CFF81146FFF7A7
:10021000F5FF02F0BDFA00F0EDF803B4FFF7F2FFCE
:1002200003BC00F0F5F80000094880470948004782
:10023000FEE7FEE7FEE7FEE7FEE7FEE7FEE7FEE796
:10024000FEE7FEE704480549054A064B70470000F3
:1002500019240008890100084001002040070020FF
:10026000400300204003002053EA020C00F06980A4
:100270002DE9F04B4FF00006002B1FBFB3FA83F5BA
:1002800003FA05F424FA05F65E4012BF1643B2FAEB
:1002900082F502FA05F4C5F120051EBF22FA05FC1D
:1002A00044EA0C04203556EA044C4FEA144418BFC3
:1002B000641C4FF000084FF00009904271EB030CF2
:1002C00039D3002919BFB1FA81F701FA07F6B0FA5C
:1002D00080F700FA07F6C7F120071EBF20FA07FCD7
:1002E00046EA0C062037B6FBF4FCA7EB0507103FE7
:1002F00007F01F0BCBF120060CFA0BFB2CFA06F6CD
:1003000044BFB3460026202FA4BF5E464FF0000B2B
:100310005BEA060C08BF4FF0010B19EB0B09ABFBB6
:10032000027C48EB0608C01B06FB02CC0BFB03CC8F
:1003300071EB0C01C1E70B46024641464846BDE859
:10034000F08B13B54FF000004FF00001AFF30080C9
:10035000BDE81C4070474FF0000200B513469446BC
:100360009646203922BFA0E80C50A0E80C50B1F10D
:100370002001BFF4F7AF090728BFA0E80C5048BF21
:100380000CC05DF804EB890028BF40F8042B08BFBF
:10039000704748BF20F8022B11F0804F18BF00F8BB
:1003A000012B7047704770477047754600F02CF876
:1003B000AE4605006946534620F00700854618B052
:1003C00020B5FFF73FFFBDE820404FF000064FF09B
:1003D00000074FF000084FF0000B21F00701AC467A
:1003E000ACE8C009ACE8C009ACE8C009ACE8C00999
:1003F0008D46704710B50446AFF300802046BDE837
:100400001040FFF70ABF000000487047DC000020E2
:1004100001491820ABBEFEE726000200704700BF6E
:10042000FEE7000010B5024800F07FFA10BD0000A2
:10043000440000202DE9F04107460C4615461E46B3
:100440004FF400700D49086000208860C8600820E3
:100450000861380A0A4908704F70200A8870CC7009
:10046000280A08714D71300A8871CE7101230A463D
:100470000249044800F057F8BDE8F081B4000020BC
:10048000000000204400002000B58BB0012009903E
:100490000020079001200890002001900290039016
:1004A00004900690059001A9054800F0E1F8044881
:1004B00000F0B9FC0221024800F020F80BB000BDAA
:1004C00044000020704710B5012000F0F3FC10BD7F
:1004D00072B600BFFEE70000002000EE900A06485A
:1004E00090ED010ABDEEC00A10EE100A00B200EE57
:1004F000900AB8EEE00A7047CC00002010B5024622
:1005000092F82030012B01D0022B06D110684069EF
:10051000084314686061002010BD506A40F48020D8
:1005200050620120F8E7F0B504460D461E4694F8E7
:10053000207020688368A86800B900E000BF012F20
:1005400001D0022F7DD103F0806030B903F000604C
:1005500018B903F0805000287ED0C3F30161012058
:1005600088403060A86860B9B5F800C0E86840EA23
:100570004C5C206800F5C07000EB0110C0F800C0B2
:100580000FE0D5E901C040EACC00D5F80CC040EA44
:100590000C00D4F800C00CF5C07C0CEB011CCCF8AE
:1005A0000000D5F810C0206800F5C07000EB011005
:1005B000C0F804C0287D01280ED1206800F5C07065
:1005C00000EB0110406840F4807C206800F5C070AA
:1005D00000EB0110C0F804C0D079000692F806C004
:1005E00040EA0C4092F805C040EA0C2092F804C0A2
:1005F00040EA0C00D4F800C00CF5C07C0CEB011CE8
:10060000CCF80C00D078000692F802C040EA0C400A
:1006100092F801C040EA0C2092F800C040EA0C00B9
:10062000D4F800C00CF5C07C0CEB011CCCF8080021
:10063000206800F5C07000EB0110006840F0010C6C
:1006400001E00FE008E0206800F5C07000EB011049
:10065000C0F800C00020F0BD606A40F40010606285
:100660000120F8E7606A40F4802060620120F2E730
:10067000F0B504460A46216894F82050012D01D0B7
:10068000022D7ED1424901F50071086840F0010059
:100690000860086820F47C5008600868566A40EAE0
:1006A00006200860107D00F01F06012000FA06F306
:1006B000C8699843C861A1F50071D069C8B9D1F87B
:1006C0000C029843C1F80C02908880B2968940EAE7
:1006D000064601F51070576940F83760108880B2FF
:1006E000168940EA064601F51070576900EBC7000D
:1006F0004660D069012819D1D1F80C021843C1F81D
:100700000C02908880B2168840EA064601F5107007
:10071000576940F83760908980B2168940EA0646EA
:1007200001F51070576900EBC7004660906928B961
:10073000D1F804029843C1F8040204E0D1F804029D
:100740001843C1F80402106928B9D1F8140298437B
:10075000C1F8140204E0D1F814021843C1F81402DD
:10076000106A012804D1D1F81C021843C1F81C02F8
:10077000D1F8000220F00100C1F800020020F0BD15
:10078000FFE7606A40F4802060620120F7E7000024
:1007900000640040704770B5044694F82050012D65
:1007A00001D0022D7DD151B92068C06800F003004E
:1007B00080B9606A40F400106062012070BD20685A
:1007C000006900F0030028B9606A40F4001060621C
:1007D0000120F3E7206800F5D87000EB01100068F5
:1007E00000F004009060906840B9206800F5D8706F
:1007F00000EB01100068400D106007E0206800F574
:10080000D87000EB01100068C0085060206800F547
:10081000D87000EB0110006800F00200D060206882
:1008200000F5D87000EB0110406800F00F000828B8
:1008300002D30820106108E0206800F5D87000EBB2
:100840000110406800F00F001061206800F5D870BA
:1008500000EB0110406800F47F40000A90612068BE
:1008600000F5D87000EB01104068000C5061206862
:1008700000F5D87000EB011080681870206800F552
:10088000D87000EB0110806800F47F40000A5870B7
:10089000206800F5D87000EB0110806800F47F003C
:1008A00000E03CE0000C9870206800F5D87000EB88
:1008B00001108068000ED870206800F5D87000EB39
:1008C0000110C0681871206800F5D87000EB0110A5
:1008D000C06800F47F40000A5871206800F5D870A5
:1008E00000EB0110C06800F47F00000C98712068D4
:1008F00000F5D87000EB0110C068000ED87131B956
:100900002068C06840F020002668F06005E020689C
:10091000006940F020002668306100204EE7606AE0
:1009200040F480206062012048E72DE9F05F044632
:100930000025206846692068D0F804902068876800
:100940002068D0F80CA02068D0F810B02068D0F84B
:10095000188006F00100002855D007F00100C0B152
:1009600001202168886007F0020018B1204600F0DD
:100970008AFA0EE007F0040010B145F4006508E0C3
:1009800007F0080010B145F4805502E0204600F061
:1009900079FA07F48070C8B14FF4807021688860DC
:1009A00007F4007018B1204600F06FFA0EE007F46B
:1009B000806010B145F4005508E007F4006010B104
:1009C00045F4804502E0204600F05EFA07F48030EE
:1009D000C8B14FF480302168886007F4003018B146
:1009E000204600F054FA0EE007F4802010B145F4E0
:1009F000004508E007F4002010B145F4803502E01E
:100A0000204600F043FA06F0080038B10AF0100062
:100A100020B145F4007510202168C86006F004007C
:100A200040B10AF0080028B108202168C8602046BB
:100A300000F0A8F906F0020038B12068C06800F0A4
:100A4000030010B1204600F09FF906F0400038B1D5
:100A50000BF0100020B145F480651020216808617A
:100A600006F0200040B10BF0080028B108202168F2
:100A70000861204600F0D4F906F0100038B1206873
:100A8000006900F0030010B1204600F0CAF906F436
:100A9000003040B109F0100028B1102021684860F2
:100AA000204600F0BFF906F4803040B109F008009C
:100AB00028B1082021684860204600F0E9F906F4D2
:100AC000004088B309F0040078B306F4807020B1C8
:100AD00008F0010008B145F0010506F4007020B1EE
:100AE00008F0020008B145F0020506F4806020B16C
:100AF00008F0040008B145F0040506F40060A0B158
:100B000008F0700088B108F07000402817D006DCAB
:100B100010280BD020280CD0302819D10CE05028F8
:100B200010D0602814D110E01DE019E045F0080550
:100B30000FE045F010050CE045F0200509E045F018
:100B4000400506E045F0800503E045F4807500E0CF
:100B500000BF00BF2068806920F0700021688861B4
:100B60000420216848602DB1606A284360622046F5
:100B7000FFF710FEBDE8F09F70B504460CB90120E8
:100B800070BD94F8200010B9204600F0AFF820683E
:100B9000006840F001002168086000F095FA054601
:100BA0000DE000F091FA401B0A2808D9606A40F471
:100BB00000306062052084F820000120E0E7206812
:100BC000406800F001000028EBD02068006820F0A9
:100BD00002002168086000F077FA05460DE000F099
:100BE00073FA401B0A2808D9606A40F4003060623A
:100BF000052084F820000120C2E72068406800F04A
:100C000002000028EBD1207E012806D12068006870
:100C100040F080002168086005E02068006820F04E
:100C2000800021680860607E012806D12068006885
:100C300040F040002168086005E02068006820F06E
:100C4000400021680860A07E012806D12068006865
:100C500040F020002168086005E02068006820F06E
:100C6000200021680860E07E012806D12068006825
:100C700020F010002168086005E02068006840F05E
:100C8000100021680860207F012806D120680068D4
:100C900040F008002168086005E02068006820F046
:100CA000080021680860607F012806D1206800687C
:100CB00040F004002168086005E02068006820F02A
:100CC000040021680860D4E902010843216908434F
:100CD000616908436168491E08432168C8610020B2
:100CE0006062012084F82000002049E710B586B03A
:100CF0000446142101A8FFF72EFB1F4920688842F3
:100D000037D100BF002000901C48006840F0007000
:100D10001A4908600846006800F00070009000BFA3
:100D200000BF00BF0020009014481038006840F059
:100D300008001249103908600846006800F00800F1
:100D4000009000BF00BF032001900220029000200D
:100D50000390032004900920059001A9084800F0A1
:100D6000B5F800221146142000F03CFA142000F0DF
:100D700025FA06B010BD0000006400404038024073
:100D8000000C02407047000010B588B004462149AD
:100D9000206888423BD1204B01AA00212046FFF762
:100DA000FAFC0198A0F2012080BB1B4840781A4948
:100DB000097840EA012000EE100AB8EEC00A174890
:100DC00080ED000A1448C0781349897840EA012070
:100DD00000EE100AB8EEC00A104880ED010A0E4875
:100DE00040790D49097940EA012000EE100AB8EE79
:100DF000C00A0A4880ED020A0748807900EE100A0E
:100E0000B8EE400A054880ED030A00BF00BF08B0F5
:100E100010BD00000064004008000020CC0000204D
:100E200070477047704770B5044694F82000012859
:100E300022D1022084F820002068006820F0010000
:100E40002168086000F040F905460DE000F03CF92B
:100E5000401B0A2808D9606A40F40030606205200F
:100E600084F82000012070BD2068406800F0010077
:100E70000028EBD16062F6E7606A40F4002060620F
:100E80000120F0E770477047704770477047704720
:100E90007047000001280AD105490968012903D1DA
:100EA000811E034A116002E00121014A116070476E
:100EB00018000020044910B50A68024202D00860F8
:100EC000FFF7E8FF10BD0000143C01402DE9F84F8A
:100ED000DFF8BCA10022012503264FF00F090AF11B
:100EE000040BAAF1040E00BF0B6805FA02F42340BC
:100EF000A34270D10F7907F00307012F01D0022F11
:100F000016D187684FEA420806FA08FC27EA0C0760
:100F1000D1F80CC00CFA08FC4CEA070CC0F808C069
:100F20004768A7430C79C4F3001494403C434460E1
:100F30000C79E443A4070AD0C4684FEA420C06FACD
:100F40000CF7BC438F6807FA0CF72743C7600C798E
:100F500004F00304022C12D1D40800EB840CDCF85A
:100F600020405707FF0E09FA07F824EA0804D1F8D1
:100F7000108008FA07F848EA0408CCF820800468D2
:100F80004FEA420C06FA0CF7BC430F7907F003074F
:100F900007FA0CF7274307604C6814F4403F70D001
:100FA0003C4C276847F480472760246822F00307F9
:100FB00004F480440094384C07EB040CDCF8084837
:100FC00097074FEA177809FA08F7BC43334FB8423E
:100FD00002D1002724E054E0314FB84201D101276B
:100FE0001EE0304FB84201D1022719E02E4FB8421F
:100FF00001D1032714E02D4FB84201D104270FE09F
:101000002B4FB84201D105270AE02A4FB84201D13F
:10101000062705E0284FB84201D1072700E008273E
:1010200007FA08F72743CCF80878DAF80040574663
:10103000D1F804C09C435FEACC2C00D51C433C6033
:10104000DBF800405F46D1F804C09C435FEA8C2C7B
:1010500000D51C433C60DEF800407746D1F804C060
:101060009C435FEA8C3C00D51C433C60084F083F22
:101070003C68D1F804C09C435FEACC3C00D51C43DB
:101080003C60521C102AFFF42FAFBDE8F88F00001F
:10109000083C01404438024000300140000002405A
:1010A0000004024000080240000C02400010024010
:1010B0000014024000180240001C02400AB1816185
:1010C00070470904FBE70000014800687047000012
:1010D00034000020034800680349097808440149A6
:1010E00008607047340000203C00002010B50D4817
:1010F000006840F400700B4908600846006840F43E
:10110000806008600846006840F480700860032032
:1011100000F0A6F80F2000F007F800F02BF80020F0
:1011200010BD0000003C024070B504460E48007837
:101130004FF47A71B1FBF0F00C490968B1FBF0F59E
:10114000284600F009FC08B1012070BD102C07D220
:1011500000222146501E00F045F80548046001E0D9
:101160000120F2E70020F0E73C00002040000020D2
:101170003800002008B500BF002000900E4800682D
:1011800040F480400C4908600846006800F4804044
:10119000009000BF00BF00BF00200090081F006843
:1011A00040F08050091F08600846006800F0805039
:1011B000009000BF00BF08BD443802400146084609
:1011C00000280DDB00BF00BF00F01F0301229A4082
:1011D00043099B0003F1E023C3F8002100BF00BFD7
:1011E00000BF70472DE9F05F80460D461646002788
:1011F00001F0B2FA074639462A46334601F00700A5
:10120000C0F1070ABAF1040F02D94FF0040A01E055
:10121000C0F1070AD14600F1040ABAF1070F02D261
:101220004FF0000A01E0A0F1030AD4464FF0010A92
:101230000AFA09FAAAF1010A0AEA020A0AFA0CFAF7
:101240004FF0010B0BFA0CFBABF1010B0BEA030B9C
:101250004AEA0B042146404601F086FABDE8F09FB9
:1012600000BF00F00702064B19684FF6FF03194054
:10127000044B0B4343EA0221014B196000BF704746
:101280000CED00E00000FA0570B504460D460CB9FF
:10129000012070BD5848006800F00700A84209D23C
:1012A00055490D700846006800F00700A84201D0BB
:1012B0000120EEE7207800F0020002281DD12078FE
:1012C00000F00400042805D14C48006840F4E050C8
:1012D0004A490860207800F00800082805D14748EE
:1012E000006840F46040454908604448006820F0C8
:1012F000F000A168084341490860207800F001002F
:10130000A8B36068012807D13C4808380068C0F3DA
:101310004040B8B90120BCE76068022802D060688C
:10132000032807D1354808380068C0F3406048B941
:101330000120AEE7314808380068C0F3400008B922
:101340000120A6E72D48006820F0030061680843EB
:101350002A490860FFF7B8FE064609E0FFF7B4FE29
:10136000801B41F28831884202D9032091E707E0CF
:101370002248006800F00C006168B0EB810FEDD1ED
:101380001D48006800F00700A84209D91A490D70ED
:101390000846006800F00700A84201D0012078E765
:1013A000207800F00400042807D11448006820F4D5
:1013B000E050E168084311490860207800F0080017
:1013C000082808D10D48006820F46040216940EAEF
:1013D000C1000A49086000F019F808490968C1F31A
:1013E0000311074A515CC840064908600648006876
:1013F000FFF79AFE00204CE7003C0240083802400C
:10140000C227000840000020380000202DE9F047E6
:10141000002400250026A1462548006800F00C00A5
:1014200020B1042805D008283AD105E0DFF88490DF
:1014300039E0DFF8849036E01D48001F006800F0B6
:101440003F041B48001F006800F4800078B11A4870
:101450001749091F0968C1F38811A0FB01700146F3
:10146000224600233846FEF7FFFE05460EE01148EF
:101470000F49091F0968C1F38811A0FB01700146DB
:10148000224600233846FEF7EFFE05460848001FB7
:101490000068C0F30140401C4600B5FBF6F902E0CD
:1014A000DFF8109000BF00BF4846BDE8F08700009D
:1014B000083802400024F400001BB700F8B50446C9
:1014C0000CB90120F8BD207800F00100002874D08C
:1014D000F948006800F00C0004280DD0F6480068B8
:1014E00000F00C00082813D1F348001F006800F436
:1014F0008000B0F5800F0BD1EF4808380068C0F3CA
:101500004040002859D06068002856D10120D9E712
:1015100000BF6068B0F5803F08D1E7480838006830
:1015200040F48030E449083908601EE06068B0F596
:10153000A02F0DD1E0480838006840F48020DE4933
:10154000083908600846006840F4803008600CE004
:10155000D9480838006820F48030D7490839086035
:101560000846006820F48020086000BF606890B1E1
:10157000FFF7AAFD054606E0FFF7A6FD401B64281D
:1015800001D903209EE7CC4808380068C0F34040EA
:101590000028F1D011E0FFF797FD054606E0FFF7C0
:1015A00093FD401B642801D903208BE7C24808380B
:1015B0000068C0F340400028F1D1207800F002001C
:1015C00002285FD1BC48006800F00C0058B1BA484E
:1015D000006800F00C0008281CD1B748001F006804
:1015E00000F48000B0B9B44808380068C0F3400087
:1015F00020B1E068012801D0012063E7AE48083837
:10160000006820F0F800216940EAC100AA490839C1
:10161000086037E0E06800B30120A8490860FFF7E0
:1016200053FD054606E0FFF74FFD401B022801D998
:10163000032047E7A04808380068C0F340000028AE
:10164000F1D09D480838006820F0F800216940EA90
:10165000C10099490839086014E0002097490860E2
:10166000FFF732FD054606E0FFF72EFD401B02287E
:1016700001D9032026E7904808380068C0F34000ED
:101680000028F1D1207800F0080008282CD16069EA
:10169000A8B101208A490860FFF716FD054606E05B
:1016A000FFF712FD401B022801D903200AE78248F8
:1016B0006C300068C0F340000028F1D014E0002036
:1016C0007F490860FFF700FD054606E0FFF7FCFCD8
:1016D000401B022801D90320F4E677486C300068EB
:1016E000C0F340000028F1D1207800F00400042865
:1016F00070D1002770483830006800F0805090B9F1
:1017000000BF002000906C483830006840F08050E6
:101710006949383108600846006800F08050009040
:1017200000BF00BF01276748006800F48070B0B9AF
:101730006448006840F4807062490860FFF7C4FCA8
:10174000054606E0FFF7C0FC401B022801D9032034
:10175000B8E65C48006800F480700028F2D000BF52
:10176000A068012808D154486830006840F00100A2
:101770005149683108601DE0A06805280DD14E4828
:101780006830006840F004004B4968310860084642
:10179000006840F0010008600CE0474868300068CD
:1017A00020F001004449683108600846006820F0D4
:1017B0000400086000BFA068A8B1FFF785FC0546DB
:1017C00009E0FFF781FC401B41F28831884202D9D1
:1017D000032077E626E0384868300068C0F3400010
:1017E0000028EED013E0FFF76FFC054608E0FFF796
:1017F0006BFC401B41F28831884201D9032061E62D
:101800002D4868300068C0F340000028EFD1012F58
:1018100007D129483830006820F0805026493831F7
:10182000086000BFA069002845D02348006800F088
:101830000C0008285DD0A069022845D100201F496E
:101840000866FFF741FC054606E0FFF73DFC401B3C
:10185000022801D9032035E6174808380068C0F38C
:1018600040600028F1D1D4E907010843616A40EAE9
:1018700081110122A06AC2EB500041EA00412C20F4
:10188000005D41EA00600C49091F086001200B4916
:101890000866FFF719FC054606E0FFF715FC401B3C
:1018A000022801D903200DE6034808380068C0F378
:1018B00040600028F1D049E008380240000047426B
:1018C000800E474200700040002021490866FFF763
:1018D000FBFB054606E0FFF7F7FB401B022801D99A
:1018E0000320EFE51B480068C0F340600028F2D1F8
:1018F0002CE0A069012800D1E4E51648001D066827
:10190000A069012820D006F48001E06981421BD142
:1019100006F03F01206A814216D147F6C070304080
:10192000616AB0EB811F0FD106F440310122A06A39
:10193000C2EB5000B1EB004F06D106F070612C20D5
:10194000005DB1EB006F01D00120BBE50020B9E5DF
:10195000000047420038024070B504462546681E24
:10196000B0F1807F01D301200FE0681E4FF0E0212D
:1019700048610F214FF0FF3000F0F6FE00204FF0DD
:10198000E021886107200861002070BD7047704722
:1019900010B50346002200BF93F83C00012801D196
:1019A000022010BD012083F83C0000BF22F0FF00A0
:1019B000CC6840EA040222F440708C6840EA0402D9
:1019C00022F480604C6840EA040222F400600C6853
:1019D00040EA040222F480500C6940EA040222F436
:1019E00000504C6940EA040222F48040CC6940EA8D
:1019F00004021868426400BF002083F83C0000BF66
:101A000000BFCEE730B502460B4600BF92F83C005F
:101A1000012801D1022030BD012082F83C0000BF26
:101A2000022082F83D00106844681068816824F044
:101A300070041868044310684460184D1068A84288
:101A40001BD01068B0F1804F17D0154D1068A84218
:101A500013D0144D1068A8420FD0134D1068A8423F
:101A60000BD0124D1068A84207D0114D1068A84243
:101A700003D0104D1068A84205D121F080015868AC
:101A8000014310688160012082F83D0000BF002002
:101A900082F83C0000BF00BFBDE70000000001402D
:101AA0000004004000080040000C00400004014019
:101AB000004001400018004010B504460CB9012058
:101AC00010BD94F83D0028B9002084F83C00204661
:101AD00000F026F8022084F83D00211D206800F067
:101AE000ADFC012084F8460000BF84F83E000121CF
:101AF0003F200155402001554120015500BF00BF46
:101B0000012084F84200432001554420015545201E
:101B1000015500BF012084F83D000020D0E70000FF
:101B200038B504460E492068884217D100BF00200E
:101B300000900C48006840F001000A49086008461F
:101B4000006800F00100009000BF00BF00221146B5
:101B50001920FFF747FB1920FFF730FB38BD0000C5
:101B60000000014044380240014691F83D00012840
:101B700001D001207047022081F83D000868C0684C
:101B800040F001000B68D8601A4B086898421BD0DF
:101B90000868B0F1804F17D0174B0868984213D0EF
:101BA000164B086898420FD0154B086898420BD026
:101BB000144B0868984207D0134B0868984203D02A
:101BC000124B086898420CD10868806800F0070240
:101BD000062A0CD00868006840F001000B68186005
:101BE00005E00868006840F001000B6818600020FC
:101BF000C0E7000000000140000400400008004071
:101C0000000C00400004014000400140001800406A
:101C10002DE9F04104460D46002700BF94F83C0032
:101C2000012802D10220BDE8F081012084F83C00A7
:101C300000BF022084F83D002068866826F0770601
:101C400026F47F46206886602868502833D00CDC54
:101C5000202850D004DC00284BD0102851D149E076
:101C6000302849D040284CD139E060282DD0702848
:101C700007D0B0F5805F03D0B0F5005F41D10DE033
:101C800041E0D5E902136A68206800F04BFC206847
:101C9000866846F077062068866034E0D5E902134E
:101CA0006A68206800F03EFC2068806840F480404C
:101CB0002168886027E0EA686968206800F022FDF2
:101CC0005021206800F039FC1DE0EA68696820684E
:101CD00000F02BFD6021206800F02FFC13E0EA6883
:101CE0006968206800F00EFD4021206800F025FCA6
:101CF00009E000BF00BF00BF2968206800F01DFC9C
:101D000001E0012700BF00BF012084F83D0000BFB3
:101D1000002084F83C0000BF384684E7704770B567
:101D200004462068C5682068066906F0020002289B
:101D300019D105F00200022815D1401F2168086161
:101D4000012020772068806900F0030018B1204648
:101D5000FFF7E4FF05E0204600F0C8F8204600F059
:101D60007CF90020207706F00400042819D105F042
:101D70000400042815D1C04321680861022020779F
:101D80002068806900F4407018B12046FFF7C6FF54
:101D900005E0204600F0AAF8204600F05EF9002099
:101DA000207706F00800082819D105F00800082857
:101DB00015D1C04321680861042020772068C069DC
:101DC00000F0030018B12046FFF7A8FF05E0204609
:101DD00000F08CF8204600F040F90020207706F053
:101DE0001000102819D105F01000102815D1C0439B
:101DF00021680861082020772068C06900F44070DD
:101E000018B12046FFF78AFF05E0204600F06EF883
:101E1000204600F022F90020207706F0010048B1AA
:101E200005F0010030B16FF0010021680861204623
:101E300000F014F906F08000802809D105F0800038
:101E4000802805D1C043216808612046FFF79EFD28
:101E500006F04000402809D105F04000402805D197
:101E6000C04321680861204600F04CF906F02000CC
:101E7000202809D105F02000202805D1C043216881
:101E800008612046FFF783FD70BD000010B586B0E5
:101E90000446142101A8FEF75EFA11492068884221
:101EA0001CD100BF002000900E48006840F00100E7
:101EB0000C4908600846006800F00100009000BF6F
:101EC00000BF88150190022002900020039004902A
:101ED0000120059001A90448FEF7F8FF06B010BDE7
:101EE00000000140303802400000024070472DE9F8
:101EF000F04104460D461646002700BF94F83C000A
:101F0000012802D10220BDE8F081012084F83C00C4
:101F100000BF36B1042E1BD0082E31D00C2E5ED15E
:101F200045E02946206800F011FB2068806940F0F8
:101F30000800216888612068806920F00400216819
:101F4000886120688069296908432168886148E0C0
:101F50002946206800F032FB2068806940F4006068
:101F6000216888612068806920F480602168886128
:101F700020688069296940EA01202168886130E091
:101F80002946206800F058FB2068C06940F008002E
:101F90002168C8612068C06920F004002168C86118
:101FA0002068C069296908432168C86119E0294689
:101FB000206800F07DFB2068C06940F40060216863
:101FC000C8612068C06920F480602168C861206809
:101FD000C069296940EA01202168C86101E0012740
:101FE00000BF00BF00BF002084F83C0000BF38469F
:101FF00089E710B504460CB9012010BD94F83D00E6
:1020000028B9002084F83C00204600F025F8022082
:1020100084F83D00211D206800F010FA012084F8AA
:10202000460000BF84F83E0001213F2001554020BA
:1020300001554120015500BF00BF012084F8420036
:1020400043200155442001554520015500BF012082
:1020500084F83D000020D0E77047704710B52DEDA3
:10206000048B0446234800684FF4E471484300EEB3
:10207000100AB8EEC00AF0EE408AFEF72DFAB0EE74
:10208000409AF0EE680AB0EE490A1B4800F02EF9BB
:10209000B0EE408A9FED190AB4EEC08AF1EE10FA54
:1020A00004DD9FED160AB0EE408A0AE09FED140AA7
:1020B000B4EEC08AF1EE10FA03D29FED110AB0EE31
:1020C000408ABDEEC80A10EE100A03B2BDEEC80A7F
:1020D00010EE100A02B2BDEEC80A10EE100A01B2EC
:1020E000BDEEC80A10EE100A00B2FEF7A3F9BDEC6F
:1020F000048B10BD180000201C000020000080464A
:10210000000080C6704700BFFEE7000010B50D4814
:102110000D4908600620486000210B488160C160BD
:102120004FF40031016109014161002101764176DE
:102130008176C17601774177FEF71EFD08B1FEF783
:10214000C7F910BD006400404400002000B587B00E
:10215000142102A8FEF7FFF800BF002001902848D4
:10216000006840F00100264908600846006800F059
:102170000100019000BF00BF00BF00200190084691
:10218000006840F0080008600846006800F0080099
:10219000019000BF00BF00BF00200190084600680A
:1021A00040F0800008600846006800F08000019060
:1021B00000BF00BF002209151248FEF77FFF4FF451
:1021C000806002900120039004900020059002A9F5
:1021D0000C48FEF77BFE012002904FF404100390A0
:1021E0000120049002A90848FEF770FE0022114663
:1021F0000620FEF7F7FF0620FEF7E0FF07B000BD60
:1022000030380240001C02400000024000B595B08A
:10221000002011901290139014900F9010901C2198
:1022200008A8FEF798F820216846FEF794F82B4896
:102230002B490860A720486000212948816044F6A6
:102240001F61C16000210161416180218161FFF74F
:1022500033FC08B1FEF73CF94FF48050119011A9FE
:102260001F48FFF7D5FC08B1FEF732F91C48FFF70D
:10227000C0FE08B1FEF72CF900200F9010900FA9B6
:102280001748FFF7BFFB08B1FEF722F9602008905E
:10229000002009900A900B900C900D900E90002257
:1022A00008A90F48FFF723FE08B1FEF711F9002037
:1022B000009001900290039004904FF4005005901C
:1022C0000020079069460648FFF762FB08B1FEF759
:1022D000FFF80348FFF7DAFD15B000BD000001402C
:1022E0006C00002000BFFEE700BFFEE7B0EE401A22
:1022F000F0EE601A31EEC13AF0EE430A90ED033A87
:1023000030EEC33AB0EE432AD0ED033AB0EE004AC5
:10231000B0EE603A04EE633AD0ED043A33EE233A7D
:10232000F0EE432A90ED053AD0ED003A03EE823A02
:10233000D0ED013A03EEA03AD0ED023A03EEA23A14
:10234000B0EE430A90ED033A80ED043AC0ED030A83
:1023500080ED050A70477047704710B5FEF7BAFE6A
:1023600010BD000000B593B0302107A8FDF7F3FFC2
:10237000142102A8FDF7EFFF00BF002001902448C0
:10238000006840F08050224908600846006800F06C
:102390008050019000BF00BF00BF002001901D4889
:1023A000006840F480401B4908600846006800F45B
:1023B0008040019000BF00BF0120079000040890FA
:1023C00002200D9041050E9106210F91A821109138
:1023D000022111910421129107A8FFF76FF808B1AB
:1023E000FEF776F80F200290022003900020049060
:1023F0004FF4A05005904FF480500690052102A89C
:10240000FEF742FF08B1FEF763F813B000BD00000D
:1024100040380240007000400348006840F47000FB
:10242000014908607047000088ED00E010B50248DF
:10243000FFF775FC10BD00006C00002010B50268AD
:102440002D4B98420ED0B0F1804F0BD02B4B9842C1
:1024500008D02B4B984205D02A4B984202D02A4BE9
:10246000984203D122F070024B681A43224B9842E3
:1024700020D0B0F1804F1DD0204B98421AD0204B75
:10248000984217D01F4B984214D01F4B984211D03E
:102490001E4B98420ED01E4B98420BD01D4B9842BB
:1024A00008D01D4B984205D01C4B984202D01C4BC3
:1024B000984203D122F44072CB681A4322F0800381
:1024C0004C6943EA040202608B68C3620B68836252
:1024D000094B984202D00C4B984201D10B6903631F
:1024E00001234361036903F001031BB1036923F076
:1024F0000103036110BD0000000001400004004022
:1025000000080040000C0040000401400040014071
:10251000004401400048014000180040001C0040F9
:102520000020004030B50C46816821F47F4142EA2A
:10253000032525432943816030BD0A46816821F087
:10254000700142F0070319438160704730B5026A99
:10255000056A25F0010505624368846924F070046A
:1025600024F003040D682C4322F002028D682A43F4
:10257000104DA84200D103E00F4DA84206D100BF84
:1025800022F00802CD682A4322F00402094DA84235
:1025900002D0094DA84207D123F4807323F40073BD
:1025A0004D692B438D692B43436084614D684563BE
:1025B000026230BD000001400004014030B5026AF3
:1025C000056A25F0100505624368846924F4E04437
:1025D00024F440740D6844EA052422F020028D683A
:1025E00042EA0512124DA84200D103E0114DA84263
:1025F00007D100BF22F08002CD6842EA051222F026
:1026000040020B4DA84202D00A4DA84209D123F442
:10261000806323F400634D6943EA85038D6943EACF
:102620008503436084614D688563026230BD0000AC
:10263000000001400004014030B5026A056A25F43B
:10264000807505624368C46924F0700424F00304B3
:102650000D682C4322F400728D6842EA0522124D67
:10266000A84200D103E0114DA84207D100BF22F4D7
:102670000062CD6842EA052222F480620A4DA84237
:1026800002D00A4DA84209D123F4805323F4005309
:102690004D6943EA05138D6943EA05134360C4613C
:1026A0004D68C563026230BD000001400004014076
:1026B00030B5036A056A25F4805505624468C2692D
:1026C00022F4E04222F440720D6842EA052223F42B
:1026D00000538D6843EA0533084DA84202D0084DE7
:1026E000A84204D124F480444D6944EA851444602E
:1026F000C2614D680564036230BD00000000014006
:102700000004014030B50B461446026A056A25F004
:1027100001050562816921F0F00141EA041122F00E
:102720000A021A438161026230BD30B50B4614467D
:10273000026A056A25F010050562816921F470417D
:1027400041EA043122F0A00242EA031281610262EE
:1027500030BD00BFFEE7000002480068C0F3022061
:10276000704700000CED00E010B5002804DB0A07FC
:10277000130E054A135406E00A07140E034A00F02C
:102780000F031B1FD45410BD00E400E018ED00E05F
:10279000FEF7ACFCFFF7E6FDFFF7D8FCFFF7B6FC51
:1027A000FFF734FDFDF770FE0248FFF7DDF900BFCB
:1027B000FEE700006C0000204FF04070E1EE100AD0
:1027C000704700000000000000000102030406073B
:1027D000080900000000010203040000FC270008B3
:1027E0000000002044000000C40100084028000848
:1027F00044000020FC060000E0010008000000008A
:1028000000000000000000000000000000000000C8
:10281000000000000100000000002041CDCC4C3E33
:10282000CDCCCC3D00000000000000000000000006
:102830000000000010000000010000000024F4006F
:040000050800018965
:00000001FF
